:1000000012C02CC02BC02AC029C028C027C026C0BF
:1000100025C024C023C022C021C020C020C01EC0D3
:100020001DC01CC01BC011241FBECFE5D4E0DEBF25
:10003000CDBF10E0A0E6B0E0ECE2F2E002C0059037
:100040000D92A636B107D9F720E0A6E6B0E001C0D0
:100050001D92A037B207E1F7D5D0E6C0D1CF1F92ED
:100060000F920FB60F9211242F933F934F935F93EC
:100070006F937F938F939F93AF93BF9384B190E0DF
:10008000909367008093660025B130E0309369005B
:100090002093680080916E0090916F0084319105EB
:1000A00080F440916A0050916B00240F351F30930B
:1000B0006B0020936A00019690936F0080936E000E
:1000C00019C020916A0030916B00ADECBCECA0D05F
:1000D000929582958F7089279F70892790936D00E4
:1000E00080936C0010926F0010926E0010926B0063
:1000F00010926A00BF91AF919F918F917F916F9104
:100100005F914F913F912F910F900FBE0F901F90D5
:1001100018958FEF81BB12BA0895939A95E89A9536
:10012000F1F7000092B39F7092BB92B38295807FEB
:10013000892B82BB939885E88A95F1F70000089592
:10014000CF93C82F611102C0929801C0929A8C2F50
:1001500082958F70E2DF8C2FE0DFCF9108958FE2E0
:1001600095E70197F1F700C0000083E0D6DF8FE349
:100170009FE10197F1F700C0000083E0CEDF87EC3C
:1001800090E00197F1F700C0000083E0C6DF8FEC3C
:1001900097E00197F1F700C0000082E0BEDF8FEC2E
:1001A00097E00197F1F700C0000060E088E2C8DF47
:1001B0008FEC97E00197F1F700C0000060E08CE061
:1001C000BFDF8FEC97E00197F1F700C0000060E01F
:1001D00086E0B6DF8FEC97E00197F1F700C00000F2
:1001E000089561E0ADDF0895CF93DF93EC0188813E
:1001F000882329F02196F5DF89918111FCCFDF91C9
:10020000CF91089586DFABDF80E690E0EDDFFFCF92
:10021000A29FB001B39FC001A39F01D0B29F700DF8
:0C022000811D1124911D0895F894FFCF5A
:06022C00706574756B00A3
:00000001FF
