S01700004763634170706C69636174696F6E382E7372656354
S11300001CC02BC02AC029C028C027C04DC025C091
S113001024C023C022C021C020C01FC01EC01DC0D8
S11300201CC01BC01AC03DC021C023C025C027C0AE
S113003029C02BC02DC02FC031C011241FBECFE555
S1130040D4E0DEBFCDBF20E0A0E6B0E001C01D9249
S1130050A336B207E1F7A1D0C5C0D2CF90E08A3071
S1130060910508F5FC01ED5EFF4F099489EF82BB11
S1130070089584EA82BB089580EB82BB089589E9E0
S113008082BB089582E982BB089582E882BB089509
S113009088EF82BB089580E882BB089580E982BB23
S11300A0089580EC82BB08951F920F920FB60F92B1
S11300B011242F933F934F935F936F937F938F9369
S11300C09F93AF93BF93EF93FF938091600081114F
S11300D006C018BAC098C19A80916200BFDF8091AF
S11300E06000813031F418BAC198C09A80916100DF
S11300F0B5DF809160008F5F823018F480936000D8
S113010002C010926000FF91EF91BF91AF919F9157
S11301108F917F916F915F914F913F912F910F90AC
S11301200FBE0F901F90189587B3836087BB8FEF26
S113013081BB08958EB588608EBD89B7806189BF03
S113014080E88BBD1ABC8EB582608EBD0895AC016B
S11301509C01ADECBCEC3AD0969587959695879525
S1130160969587959C01220F331F880F991F880F3E
S1130170991F880F991F820F931F9A01281B390B0F
S1130180209362009A0122D096958795969587953B
S113019096958795809361000895C6DFCBDF7894A8
S11301A0C0E0D0E000E010E0CE01D1DF2FEF84E327
S11301B09CE0215080409040E1F700C0000021966F
S11301C0C436D1058CF3C02FD12FEECFA29FB0013E
S11301D0B39FC001A39F01D0B29F700D811D112454
S10B01E0911D0895F894FFCF6E
S9030000FC
