:1000000012C022C021C020C01FC01EC01DC01CC005
:100010001BC01AC019C018C017C016C015C014C024
:1000200013C012C011C011241FBECFEDCDBF10E010
:10003000A0E6B0E0ECE3F4E002C005900D92AE362D
:10004000B107D9F799D0F8C1DBCF8FEF81BB12BAD6
:100050000895929A95E89A95F1F7000092B39778EF
:1000600092BB92B3880F880F880F892B82BB92981E
:1000700085E88A95F1F700000895CF93C82F6111A4
:1000800002C0919801C0919A8C2F82958F70E1DF08
:100090008C2FDFDFCF9108958FE295E70197F1F77D
:1000A00000C0000083E0D5DF8FE39FE10197F1F707
:1000B00000C0000083E0CDDF87EC90E00197F1F70E
:1000C00000C0000083E0C5DF8FEC97E00197F1F7F7
:1000D00000C0000082E0BDDF8FEC97E00197F1F7F0
:1000E00000C0000060E088E2C8DF8FEC97E0019775
:1000F000F1F700C0000060E08CE0BFDF8FEC97E01C
:100100000197F1F700C0000060E086E0B6DF8FECF9
:1001100097E00197F1F700C00000089561E0ADDFBE
:1001200008956295660F660F607C860F60E08068B8
:10013000A4DF0895CF93DF93EC018881882329F011
:100140002196ECDF89918111FCCFDF91CF91089549
:1001500087B3806D87BBBD9888B38F7288BB0895C5
:100160008FB9769A769BFECF8DB18B618DB98AE17E
:100170008A95F1F700C00895CF93DF93CDB7DD27BF
:10018000CA50CDBF62DF88DFE3DF84E690E0D2DFD4
:100190005BD0182F2FEF89E698E1215080409040E6
:1001A000E1F700C00000812FDBDF4AE0BE016F5F96
:1001B0007F4F812F90E057D061E070E080E0B1DFA9
:1001C000CE010196B7DFE4CFA0E0B0E0E9EEF0E0C9
:1001D000BCC0EC01688179818A819B8161157105C0
:1001E0008105910521F464E279ED8BE597E02DE13D
:1001F00033EF41E050E06AD049015A0127EA31E487
:1002000040E050E07FD069017A01C501B4012CEED5
:1002100034EF4FEF5FEF76D089019A01D701C60125
:10022000800F911FA21FB31FB7FF03C00197A10941
:10023000B04888839983AA83BB839F77CDB7DEB705
:10024000ECE09AC0C1DF089580E690E0BDDF08953C
:10025000A0E0B0E08093600090936100A093620002
:10026000B09363000895BB274A3031F4992322F4F8
:10027000BDE2909581959F4F01C0BB27FB0155279B
:10028000AA27880F991FAA1FA41710F0A41B8395F3
:100290005051B9F7A05DAA3308F0A95DA19300976A
:1002A00079F7B111B1931192CB0100C0DC01FC01CF
:1002B000672F71917723E1F7329704C07C916D939A
:1002C00070836291AE17BF07C8F30895052E97FBA0
:1002D00016F400940FD057FD05D05ED007FC02D075
:1002E00046F408C050954095309521953F4F4F4FAB
:1002F0005F4F089590958095709561957F4F8F4FD2
:100300009F4F089568940013E894A0E0B0E0EAE8F5
:10031000F1E01DC0EFEFE7F959016A015E23550FC7
:10032000EE08FE2C87019B01AC019E23990F660B02
:10033000762FCB0153D0CDB7DD27EAE01FC02F9237
:100340003F924F925F926F927F928F929F92AF9265
:10035000BF92CF92DF92EF92FF920F931F93CF93B2
:10036000DF93CDB7CA1BCDBFDD2709942A88398812
:1003700048885F846E847D848C849B84AA84B9843D
:10038000C884DF80EE80FD800C811B81AA81D98129
:10039000CE0FCDBFCA2F0895A1E21A2EAA1BBB1BF8
:1003A000FD010DC0AA1FBB1FEE1FFF1FA217B30741
:1003B000E407F50720F0A21BB30BE40BF50B661F57
:1003C000771F881F991F1A9469F76095709580951B
:1003D00090959B01AC01BD01CF010895DF93CF93B0
:1003E0009F92A0E49A2E0024D001E001F00116951E
:1003F0000795F794E794D794C794B794A79448F4D3
:100400001068A20FB31FC41FD51FE61FF71F081ED9
:10041000191E220F331F441F551F661F771F881F89
:10042000991F9A9421F79D01AE01BF01C0011124CB
:0C0430009F90CF91DF910895F894FFCFCA
:0E043C0001000000497420776F726B7321007D
:00000001FF
