S01700004763634170706C69636174696F6E332E7372656359
S113000012C019C018C017C016C015C014C013C040
S113001012C011C010C010C00EC00DC00CC00BC067
S11300200AC009C008C011241FBECFE5D4E0DEBF5A
S1130030CDBF2BD02EC0E4CF1F920F920FB60F92DC
S113004011248F938CB1803329F0813329F483E018
S113005085BB04C015BA02C081E088BB8F910F90A4
S11300600FBE0F901F90189511BA82E081BB8FEFDD
S113007084BB15BA81E087BB089588E98AB986E80C
S113008080BD83E389B910BC0895EEDFF6DF789470
S1090090FFCFF894FFCF3E
S9030000FC
