S01A000052656D6F746520636F6E74726F6C6C696E672E73726563D3
S113000012C024C023C022C021C020C01FC01EC0F3
S11300101DC01CC01BC0A9C019C018C017C016C081
S113002015C014C013C011241FBECFE5D4E0DEBF39
S1130030CDBF10E0A0E6B0E0EEE1F2E002C0059032
S11300400D92A238B107D9F7DBD0E7C0D9CF939A84
S113005090E19A95F1F700C092B39F7092BB92B36E
S11300608295807F892B82BB939880E18A95F1F7F2
S113007000C00895CF93C82F611102C0929801C0A7
S1130080929A8C2F82958F70E2DF8C2FE0DFCF91D4
S1130090089585EA9EE00197F1F700C0000083E02F
S11300A0D6DF87EE93E00197F1F700C0000083E00C
S11300B0CEDF91E29A95F1F7000083E0C8DF89EF83
S11300C090E00197F1F700C0000082E0C0DF89EF03
S11300D090E00197F1F700C0000060E088E2CADF19
S11300E089EF90E00197F1F700C0000060E08CE038
S11300F0C1DF89EF90E00197F1F700C0000060E0F4
S113010086E0B8DF89EF90E00197F1F700C00000C6
S1130110089561E0AFDF089590E4699F800D112494
S113012060E08068A7DF0895EF92FF920F931F931A
S1130130CF93DF938C017C01C0E0D0E005C0F701D0
S113014081917F01E6DF2196F80101900020E9F713
S11301503197E01BF10BCE17DF0788F3DF91CF91C6
S11301601F910F91FF90EF9008951F920F920FB679
S11301700F9211242F933F934F935F936F937F9329
S11301808F939F93AF93BF93EF93FF938CB180337F
S113019061F0813399F483E085BB60E070E080E036
S11301A0BBDF80E690E0C0DF12C015BA60E070E00B
S11301B080E0B2DF89E690E0B7DF09C081E088BB68
S11301C060E070E080E0A8DF83E790E0ADDFFF91BE
S11301D0EF91BF91AF919F918F917F916F915F91BB
S11301E04F913F912F910F900FBE0F901F90189534
S11301F08EEF81BB8FEF84BB15BA81E087BB089576
S1130200F7DF03D046DF7894FFCF88E98AB986E820
S111021080BD83E389B910BC0895F894FFCF34
S113021E504F5745523A4F4E00504F5745523A4F52
S113022E46460057524F4E472053594D424F4C218C
S105023E0000BA
S9030000FC
