:1000000012C019C018C017C016C015C014C013C044
:1000100012C011C010C00FC00EC00DC00CC00BC06C
:100020000AC009C008C011241FBECFE5D4E0DEBF5E
:10003000CDBF02D034C0E4CF2FD026D080E090E0F6
:100040004FEF30E060E050E00DC023B52F5F23BDDF
:10005000EFE6F7E13197F1F700C00000019602C02A
:10006000862F952F8F3F910584F3842F932F23B5EF
:10007000215023BDEFE6F7E13197F1F700C0000012
:1000800001970097A1F7ECCF12BC8EE685BD14BC9A
:1000900013BC89B789BF089518BABB9A0895F8941C
:0200A000FFCF90
:00000001FF
