:1000000012C024C023C022C021C020C01FC01EC0F7
:100010001DC01CC01BC01AC019C018C017C016C014
:1000200015C014C013C011241FBECFE5D4E0DEBF3D
:10003000CDBF10E0A0E6B0E0E6E7F1E002C0059039
:100040000D92A636B107D9F706D093C0D9CF8FEF5E
:1000500081BB12BA0895FBDF26D080E690E068D01D
:10006000FFCF939A95E89A95F1F7000092B39F70AD
:1000700092BB92B38295807F892B82BB939885E84F
:100080008A95F1F700000895CF93C82F611102C03F
:10009000929801C0929A8C2F82958F70E2DF8C2FFC
:1000A000E0DFCF9108958FE295E70197F1F700C067
:1000B000000083E0D6DF8FE39FE10197F1F700C0F6
:1000C000000083E0CEDF87EC90E00197F1F700C0FD
:1000D000000083E0C6DF8FEC97E00197F1F700C0E6
:1000E000000082E0BEDF8FEC97E00197F1F700C0DF
:1000F000000060E088E2C8DF8FEC97E00197F1F73D
:1001000000C0000060E08CE0BFDF8FEC97E001975B
:10011000F1F700C0000060E086E0B6DF8FEC97E00A
:100120000197F1F700C00000089561E0ADDF089588
:10013000EF92FF920F931F93CF93DF938C017C017B
:10014000C0E0D0E005C0F70181917F01EEDF21968C
:10015000F80101900020E9F73197E01BF10BCE1771
:10016000DF0788F3DF91CF911F910F91FF90EF9000
:060170000895F894FFCF92
:06017600536F73692100C4
:00000001FF
