S01800004763634170706C69636174696F6E31302E737265632A
S113000012C02CC02BC02AC029C028C027C026C0BB
S113001025C024C023C022C021C020C01FC01EC0D0
S11300201DC01CC01BC011241FBECFE5D4E0DEBF21
S1130030CDBF10E0A0E6B0E0EAEAF3E002C005902C
S11300400D92AA36B107D9F720E0AAE6B0E001C0C4
S11300501D92A037B207E1F767D0A5C1D1CF11BA7D
S113006082E081BB8FEF84BB15BA81E087BB089522
S113007088E98AB986E880BD83E389B910BC08950C
S11300805D9BFECF8CB90895E199FECF9FBB8EBBDB
S11300906DBBE29AE19A0895E199FECF9FBB8EBBB6
S11300A0E09A8DB308950F931F93CF93DF938C0140
S11300B0EB01E0916A00F0916B0082E090E09183A3
S11300C080836881C801E0DF6981C8010196DCDFB3
S11300D0DF91CF911F910F910895CF92DF92EF920C
S11300E0FF920F931F93CF93DF938C017B01CB017E
S11300F033D06C01E114F10469F0E80EF91EEC014F
S1130100081B190BC8018C0F9D1FC6DF8993CE15E0
S1130110DF05C1F7C601DF91CF911F910F91FF90C9
S1130120EF90DF90CF9008959ADFA2DF66E670E04B
S113013081E090E0B8DF66E070E081E090E0CDDF40
S11301408C01C0E0D0E0F80181918F0199DF219604
S1130150C630D105C1F7FFCFCF93DF93823091052D
S113016010F482E090E0E0916E00F0916F0020E0E6
S113017030E0A0E0B0E0309739F140815181481778
S11301805907B8F04817590771F482819381109781
S113019029F013969C938E9312972CC090936F0022
S11301A080936E0027C02115310531F042175307A3
S11301B018F0A901DB0101C0EF019A01BD01DF01C3
S11301C00280F381E02DD7CF21153105F9F0281BEA
S11301D0390B2430310580F48A819B8161157105C6
S11301E021F0FB019383828304C090936F0080937A
S11301F06E00FE01329644C0FE01E20FF31F8193AC
S1130200919322503109398328833AC020916C009C
S113021030916D00232B41F42091620030916300F2
S113022030936D0020936C00209160003091610048
S11302302115310541F42DB73EB74091640050912A
S11302406500241B350BE0916C00F0916D00E21702
S1130250F307A0F42E1B3F0B2817390778F0AC01E5
S11302604E5F5F4F2417350748F04E0F5F1F5093C2
S11302706D0040936C008193919302C0E0E0F0E044
S1130280CF01DF91CF910895CF93DF93009709F4C5
S113029087C0FC01329713821282C0916E00D09104
S11302A06F00209781F420813181280F391F8091BC
S11302B06C0090916D008217930779F5F0936D00AF
S11302C0E0936C006DC0DE0120E030E0AE17BF07A4
S11302D050F412964D915C9113979D01411551056F
S11302E009F1DA01F3CFB383A28340815181840FF2
S11302F0951F8A179B0771F48D919C911197840F18
S1130300951F02969183808312968D919C911397E9
S1130310938382832115310529F4F0936F00E093D0
S11303206E003EC0D9011396FC93EE9312974D9143
S11303305D91A40FB51FEA17FB0779F480819181C1
S1130340840F951F0296D90111969C938E938281F6
S1130350938113969C938E931297E0E0F0E08A8148
S11303609B81009719F0FE01EC01F9CFCE010296B2
S113037028813981820F931F20916C0030916D0088
S11303802817390769F4309729F410926F001092F6
S11303906E0002C013821282D0936D00C0936C0071
S10D03A0DF91CF910895F894FFCF88
S10D03AA000070002000506572008E
S9030000FC
