S01700004763634170706C69636174696F6E342E7372656358
S113000012C019C018C017C016C015C014C013C040
S113001012C011C010C010C00EC00DC00CC00BC067
S11300200AC009C008C011241FBECFE5D4E0DEBF5A
S1130030CDBF2CD02FC0E4CF1F920F920FB60F92DA
S113004011248F938CB1813019F48FEF85BB07C0D5
S11300508CB1811102C015BA02C081E088BB8F91B6
S11300600F900FBE0F901F90189511BA82E081BBBC
S11300708FEF84BB15BA81E087BB089588E98AB9FC
S113008086E880BD83E389B910BC0895EEDFF6DF0E
S10B00907894FFCFF894FFCF30
S9030000FC
