S01500004144435F496E746572727570742E737265631B
S113000012C02CC02BC02AC029C028C027C026C0BB
S113001025C024C023C022C021C020C020C01EC0CF
S11300201DC01CC01BC011241FBECFE5D4E0DEBF21
S1130030CDBF10E0A0E6B0E0EAE3F9E002C005902D
S11300400D92A037B107D9F720E0A0E7B0E001C0D6
S11300501D92AA37B207E1F7E7D06DC4D1CF1F9242
S11300600F920FB60F9211242F933F938F939F9368
S113007084B190E0909371008093700025B130E0DA
S11300803093730020937200322F2227820F931F24
S113009090937500809374009F918F913F912F915D
S11300A00F900FBE0F901F90189586B18F6E86B972
S11300B087B1806C87B90895CF93DF93EC0161E039
S11300C070E084E090E0EFD2FC019E013695279524
S11300D03695279536952795A5ECB0E2D8D292951A
S11300E082958F7089279F70892720E3280F2083AA
S11300F048EE53E0849F9001859F300D949F300D0E
S11301001124CE01821B930B9C01369527953695BD
S11301102795ABE7B4E1BBD296958795805D818343
S11301209E013695279536952795B1D29695879554
S113013044E6489F9001499F300D1124CE01821B53
S1130140930B9C01ADECBCECA2D296958795969549
S1130150879596958795805D82839E0198D2969522
S1130160879596958795969587959C01220F331FC1
S1130170880F991F880F991F880F991F820F931F4B
S1130180C81BD90BC05DC383CF01DF91CF91089504
S1130190CF92DF92EF92FF921F93CF93DF936B0185
S11301A07C0161E070E084E090E07DD2EC01C70165
S11301B0B60150D1605D68838EE2898320E030E02F
S11301C040E251E4C701B601FFD144D11DEC619F67
S11301D0812D1124869586958695880F982F990FE1
S11301E0990F890F681B605D6A8320E030E048EC5A
S11301F052E4C701B601E8D12DD1619F112D11241C
S1130200169516951695110F812F880F880F180FC4
S1130210611B605D6B83CE01DF91CF911F91FF90D5
S1130220EF90DF90CF9008952CD03FDF50D078949A
S113023060E070E080E090D080917400909175004F
S11302403BDF92D061E070E080E086D086E690E00B
S11302508BD0609174007091750080E090E026D19D
S113026020E030E048EC53E48DD092DF7DD02FEFD6
S113027084E39CE0215080409040E1F700C00000FE
S1130280D7CF8FEF81BB12BA0895939A95E89A95C8
S1130290F1F7000092B39F7092BB92B38295807F76
S11302A0892B82BB939885E88A95F1F7000008951D
S11302B0CF93C82F611102C0929801C0929A8C2FDB
S11302C082958F70E2DF8C2FE0DFCF9108958FE26B
S11302D095E70197F1F700C0000083E0D6DF8FE3D4
S11302E09FE10197F1F700C0000083E0CEDF87ECC7
S11302F090E00197F1F700C0000083E0C6DF8FECC7
S113030097E00197F1F700C0000082E0BEDF8FECB8
S113031097E00197F1F700C0000060E088E2C8DFD1
S11303208FEC97E00197F1F700C0000060E08CE0EB
S1130330BFDF8FEC97E00197F1F700C0000060E0A9
S113034086E0B6DF8FEC97E00197F1F700C000007C
S1130350089561E0ADDF089590E4699F800D112454
S113036060E08068A5DF0895CF93DF93EC01888176
S1130370882329F02196EDDF89918111FCCFDF914B
S1130380CF9108950CD0E6C0DED040F0D5D030F047
S113039021F45F3F19F0C7C0511110C1CAC0EBD09E
S11303A098F39923C9F35523B1F3951B550BBB2738
S11303B0AA2762177307840738F09F5F5F4F220FE5
S11303C0331F441FAA1FA9F333D00E2E3AF0E0E8DE
S11303D030D091505040E695001CCAF729D0FE2F2A
S11303E027D0660F771F881FBB1F261737074807BC
S11303F0AB07B0E809F0BB0B802DBF01FF27935872
S11304005F4F2AF09E3F510568F08DC0D7C05F3F13
S1130410ECF3983EDCF3869577956795B795F79559
S11304209F5FC9F7880F911D9695879597F9089551
S1130430E1E0660F771F881FBB1F621773078407ED
S1130440BA0720F0621B730B840BBA0BEE1F88F7FC
S1130450E095089598D088F09F5790F0B92F992788
S1130460B751A0F0D1F0660F771F881F991F1AF0BB
S1130470BA95C9F712C0B13081F09FD0B1E00895A8
S11304809CC0672F782F8827B85F39F0B93FCCF329
S1130490869577956795B395D9F73EF490958095B1
S11304A0709561957F4F8F4F9F4F0895E89409C0D1
S11304B097FB3EF490958095709561957F4F8F4F93
S11304C09F4F9923A9F0F92F96E9BB279395F695A9
S11304D0879577956795B795F111F8CFFAF4BB0F27
S11304E011F460FF1BC06F5F7F4F8F4F9F4F16C08B
S11304F0882311F096E911C0772321F09EE8872F15
S1130500762F05C0662371F096E8862F70E060E0D0
S11305102AF09A95660F771F881FDAF7880F969549
S1130520879597F9089597F99F6780E870E060E0F0
S113053008959FEF80EC089500240A941616170678
S113054018060906089500240A94121613061406C0
S113055005060895092E0394000C11F4882352F023
S1130560BB0F40F4BF2B11F460FF04C06F5F7F4FDB
S11305708F4F9F4F089557FD9058440F551F59F0C2
S11305805F3F71F04795880F97FB991F61F09F3F7C
S113059079F087950895121613061406551FF2CFA5
S11305A04695F1DF08C0161617061806991FF1CFF5
S11305B086957105610508940895E894BB2766271C
S11305C07727CB0197F908950BD0C4CFB5DF28F076
S11305D0BADF18F0952309F0A6CFABCF1124EECFE4
S11305E0CADFA0F3959FD1F3950F50E0551F629F8A
S11305F0F001729FBB27F00DB11D639FAA27F00D78
S1130600B11DAA1F649F6627B00DA11D661F829F9E
S11306102227B00DA11D621F739FB00DA11D621F83
S1130620839FA00D611D221F749F3327A00D611DA0
S1130630231F849F600D211D822F762F6A2F112482
S11306409F5750408AF0E1F088234AF0EE0FFF1FD5
S1130650BB1F661F771F881F91505040A9F79E3F0C
S1130660510570F060CFAACF5F3FECF3983EDCF306
S1130670869577956795B795F795E7959F5FC1F749
S1130680FE2B880F911D9695879597F90895A29F43
S1130690B001B39FC001A39F01D0B29F700D811D13
S11306A01124911D08950F931F93CF93DF93869F79
S11306B08001879F100D969F100D1124C8010DD045
S11306C0EC01009721F0A80160E070E02DD1CE018B
S11306D0DF91CF911F910F910895CF93DF938230D3
S11306E0910510F482E090E0E0917800F0917900B7
S11306F020E030E0A0E0B0E0309739F14081518152
S113070048175907B8F04817590771F48281938143
S1130710109729F013969C938E9312972CC0909364
S113072079008093780027C02115310531F04217F4
S1130730530718F0A901DB0101C0EF019A01BD01C3
S1130740DF010280F381E02DD7CF21153105F9F0C7
S1130750281B390B2430310580F48A819B81611573
S1130760710521F0FB019383828304C09093790087
S113077080937800FE01329644C0FE01E20FF31F1D
S11307808193919322503109398328833AC020916F
S1130790760030917700232B41F420916200309150
S11307A063003093770020937600209160003091AD
S11307B061002115310541F42DB73EB74091640025
S11307C050916500241B350BE0917600F091770081
S11307D0E217F307A0F42E1B3F0B2817390778F014
S11307E0AC014E5F5F4F2417350748F04E0F5F1F73
S11307F050937700409376008193919302C0E0E098
S1130800F0E0CF01DF91CF910895CF93DF9300976C
S113081009F487C0FC01329713821282C0917800D8
S1130820D0917900209781F420813181280F391FDC
S113083080917600909177008217930779F5F09371
S11308407700E09376006DC0DE0120E030E0AE1763
S1130850BF0750F412964D915C9113979D01411579
S1130860510509F1DA01F3CFB383A28340815181A9
S1130870840F951F8A179B0771F48D919C91119792
S1130880840F951F02969183808312968D919C917B
S11308901397938382832115310529F4F09379000A
S11308A0E09378003EC0D9011396FC93EE9312971F
S11308B04D915D91A40FB51FEA17FB0779F4808170
S11308C09181840F951F0296D90111969C938E9362
S11308D08281938113969C938E931297E0E0F0E0CB
S11308E08A819B81009719F0FE01EC01F9CFCE01BA
S11308F0029628813981820F931F209176003091CE
S113090077002817390769F4309729F41092790091
S11309101092780002C013821282D0937700C093A1
S11309207600DF91CF910895DC0101C06D934150B1
S10D09305040E0F70895F894FFCF5B
S113093A00007A002000766F6C746167653A0000E3
S9030000FC
