S00B00005457492E7372656325
S113000012C019C018C017C016C015C014C013C040
S113001012C011C010C00FC00EC00DC00CC00BC068
S11300200AC009C008C011241FBECFE5D4E0DEBF5A
S1130030CDBF02D03DC0E4CF1CD02ED081B190E022
S113004033D01AD081B190E02FD080EA1ED081B194
S113005090E02AD080E019D081B190E025D080E0F2
S113006014D081B190E020D00DD081B190E01CD0AB
S1130070FFCF80E280B9089584EA86BF86B78823DB
S1130080E9F3089584EA86BF089583B984E886BFB6
S113009006B607FEFDCF089588E98AB986E880BDD3
S11300A083E389B910BC08955D9BFECF8CB9089594
S10700B0F894FFCFEE
S9030000FC
