:1000000012C021C020C01FC01EC01DC01CC01BC00C
:100010001AC0E8C018C017C016C015C015C013C05C
:1000200012C011C010C011241FBECFE5D4E0DEBF46
:10003000CDBF20E0A0E6B0E001C01D92A237B2071C
:10004000E1F7FCD008C1DCCF1F920F920FB60F92E0
:1000500011242F933F934F936F937F938F939F938D
:10006000AF93BF9384B18093600045B1409361002A
:1000700080916B0090916C008431910580F4209107
:10008000690030916A00240F311D30936A0020937B
:100090006900019690936C0080936B0019C02091C9
:1000A000690030916A00ADECBCECC9D092958295A4
:1000B0008F7089279F7089279093680080936700CD
:1000C00010926C0010926B0010926A0010926900FE
:1000D000BF91AF919F918F917F916F914F913F9180
:1000E0002F910F900FBE0F901F9018958230E1F066
:1000F00028F4882341F0813071F035C08330F1F06D
:10010000843039F130C08091670090916800499740
:1001100060F581E0089580916700909168004A97AA
:10012000879728F581E00895809167009091680095
:1001300082549109C197E8F481E0089580916700A5
:10014000909168008457910980349105A0F481E072
:1001500008958091670090916800855B9109C1972F
:1001600060F481E0089584E0089582E0089582E0DB
:10017000089582E0089582E0089582E008951F9333
:10018000CF93DF93C82FD0E0FE01E359FF4F1081DA
:1001900015FD24C0ABDF823089F4FE01EE59FF4F1C
:1001A0008081882319F08150808318C010FF16C009
:1001B000C359DF4F1E7F1261188310C0FE01EE5934
:1001C000FF4F8081853018F48F5F808307C011FF57
:1001D00005C0C359DF4F1D7F19601883DF91CF9190
:1001E0001F9108951F920F920FB60F9211242F9313
:1001F0003F934F935F936F937F938F939F93AF93AF
:10020000BF93EF93FF9380E0BADF81E0B8DF82E035
:10021000B6DF83E0B4DF84E0B2DFFF91EF91BF91FE
:10022000AF919F918F917F916F915F914F913F918E
:100230002F910F900FBE0F901F901895FFCFA29F88
:10024000B001B39FC001A39F01D0B29F700D811D6B
:0A0250001124911D0895F894FFCFCA
:00000001FF
