S01700004763634170706C69636174696F6E392E7372656353
S113000012C024C023C022C021C020C01FC01EC0F3
S11300101DC01CC01BC01AC019C018C017C016C010
S113002015C014C013C011241FBECFE5D4E0DEBF39
S1130030CDBF10E0A0E6B0E0EAE1F2E002C0059036
S11300400D92A237B107D9F706D0E5C0D9CF8FEF0B
S113005081BB12BA0895FBDF66D060E070E080E0F7
S1130060A7D080E690E0ACD02FEF89E698E121504C
S113007080409040E1F700C00000C3D060E070E031
S113008080E096D086E690E09BD02FEF89E698E159
S1130090215080409040E1F700C00000B2D060E001
S11300A070E080E085D089E690E08AD02FEF89E681
S11300B098E1215080409040E1F700C00000A1D0B9
S11300C060E070E080E074D08BE690E079D02FEFB0
S11300D089E698E1215080409040E1F700C000009B
S11300E0BCCF939A95E89A95F1F7000092B39F706C
S11300F092BB92B38295807F892B82BB939885E8CB
S11301008A95F1F700000895CF93C82F611102C0BA
S1130110929801C0929A8C2F82958F70E2DF8C2F77
S1130120E0DFCF9108958FE295E70197F1F700C0E2
S1130130000083E0D6DF8FE39FE10197F1F700C071
S1130140000083E0CEDF87EC90E00197F1F700C078
S1130150000083E0C6DF8FEC97E00197F1F700C061
S1130160000082E0BEDF8FEC97E00197F1F700C05A
S1130170000060E088E2C8DF8FEC97E00197F1F7B8
S113018000C0000060E08CE0BFDF8FEC97E00197D7
S1130190F1F700C0000060E086E0B6DF8FEC97E086
S11301A00197F1F700C00000089561E0ADDF089504
S11301B090E4699F800D112460E08068A5DF0895B4
S11301C0EF92FF920F931F93CF93DF938C017C01E7
S11301D0C0E0D0E005C0F70181917F01E6DF219600
S11301E0F80101900020E9F73197E01BF10BCE17DD
S11301F0DF0788F3DF91CF911F910F91FF90EF906C
S1130200089560E081E080DF87EB9BE00197F1F7E0
S10D021000C000000895F894FFCF29
S113021A4469616E6100476F0056005372616B75E1
S105022A2100AD
S9030000FC
