:1000000012C02CC02BC02AC029C028C027C026C0BF
:1000100025C024C023C022C021C020C020C01EC0D3
:100020001DC01CC01BC011241FBECFE5D4E0DEBF25
:10003000CDBF10E0A0E6B0E0E8E4F6E002C0059035
:100040000D92A639B107D9F720E0A6E9B0E001C0CA
:100050001D92A43AB207E1F7CFD0F4C2D1CF1F92DC
:100060000F920FB60F9211242F933F934F935F93EC
:100070006F937F938F939F93AF93BF9384B190E0DF
:10008000909397008093960025B130E030939900CB
:100090002093980080919E0090919F00843191055B
:1000A00080F440919A0050919B00240F351F3093AB
:1000B0009B0020939A00019690939F0080939E004E
:1000C00019C020919A0030919B00ADECBCEC66D138
:1000D000929582958F7089279F70892790939D00B4
:1000E00080939C0010929F0010929E0010929B00A3
:1000F00010929A00BF91AF919F918F917F916F91D4
:100100005F914F913F912F910F900FBE0F901F90D5
:10011000189586B18E6E86B987B1806E87B90895BD
:10012000CF93DF93EC0161E070E084E090E042D196
:10013000FC019E013695279536952795369527958E
:10014000A5ECB0E22BD1929582958F7089279F7094
:10015000892720E3280F208348EE53E0849F9001F5
:10016000859F300D949F300D1124CE01821B930B7F
:100170009C013695279536952795ABE7B4E10ED1CE
:1001800096958795805D81839E0136952795369556
:10019000279504D19695879544E6489F9001499FFD
:1001A000300D1124CE01821B930B9C01ADECBCECF5
:1001B000F5D0969587959695879596958795805DC8
:1001C00082839E01EBD09695879596958795969517
:1001D00087959C01220F331F880F991F880F991F45
:1001E000880F991F820F931FC81BD90BC05DC38353
:1001F000CF01DF91CF91089546D06BD08ADF7894FC
:1002000061E070E080E0AAD0BFD061E070E080E003
:10021000A5D080919C0090919D008931910520F49A
:1002200086E690E0A3D01BC08134910520F480E7DE
:1002300090E09CD014C08337910520F487E790E0CC
:1002400095D00DC0843B910520F480E890E08ED0DD
:1002500006C0883C910518F489E890E087D060E0FA
:1002600070E080E07BD080919C0090919D0058DFF1
:100270007DD02FEF81EE94E0215080409040E1F757
:1002800000C00000C2CF8FEF81BB12BA0895939ACD
:1002900095E89A95F1F7000092B39F7092BB92B3E4
:1002A0008295807F892B82BB939885E88A95F1F7A8
:1002B00000000895CF93C82F611102C0929801C029
:1002C000929A8C2F82958F70E2DF8C2FE0DFCF9196
:1002D00008958FE295E70197F1F700C0000083E0F1
:1002E000D6DF8FE39FE10197F1F700C0000083E0C4
:1002F000CEDF87EC90E00197F1F700C0000083E0CB
:10030000C6DF8FEC97E00197F1F700C0000082E0B4
:10031000BEDF8FEC97E00197F1F700C0000060E0CE
:1003200088E2C8DF8FEC97E00197F1F700C000008A
:1003300060E08CE0BFDF8FEC97E00197F1F700C041
:10034000000060E086E0B6DF8FEC97E00197F1F700
:1003500000C00000089561E0ADDF089590E4699F5A
:10036000800D112460E08068A5DF0895CF93DF93AE
:10037000EC018881882329F02196EDDF8991811194
:10038000FCCFDF91CF91089560E081E093DF87EBB0
:100390009BE00197F1F700C000000895A29FB00113
:1003A000B39FC001A39F01D0B29F700D811D112486
:1003B000911D08950F931F93CF93DF93869F800124
:1003C000879F100D969F100D1124C8010DD0EC01D0
:1003D000009721F0A80160E070E02DD1CE01DF91FF
:1003E000CF911F910F910895CF93DF9382309105A4
:1003F00010F482E090E0E091A200F091A30020E0F0
:1004000030E0A0E0B0E0309739F1408151814817E9
:100410005907B8F04817590771F4828193811097F2
:1004200029F013969C938E9312972CC09093A3005F
:100430008093A20027C02115310531F042175307E0
:1004400018F0A901DB0101C0EF019A01BD01DF0134
:100450000280F381E02DD7CF21153105F9F0281B5B
:10046000390B2430310580F48A819B816115710537
:1004700021F0FB019383828304C09093A3008093B7
:10048000A200FE01329644C0FE01E20FF31F8193E9
:10049000919322503109398328833AC02091A000DA
:1004A0003091A100232B41F4209162003091630030
:1004B0003093A1002093A000209160003091610052
:1004C0002115310541F42DB73EB74091640050919C
:1004D0006500241B350BE091A000F091A100E2170C
:1004E000F307A0F42E1B3F0B2817390778F0AC0157
:1004F0004E5F5F4F2417350748F04E0F5F1F509334
:10050000A1004093A0008193919302C0E0E0F0E04D
:10051000CF01DF91CF910895CF93DF93009709F436
:1005200087C0FC01329713821282C091A200D09141
:10053000A300209781F420813181280F391F8091F9
:10054000A0009091A1008217930779F5F093A10084
:10055000E093A0006DC0DE0120E030E0AE17BF07E1
:1005600050F412964D915C9113979D0141155105E0
:1005700009F1DA01F3CFB383A28340815181840F63
:10058000951F8A179B0771F48D919C911197840F89
:10059000951F02969183808312968D919C9113975B
:1005A000938382832115310529F4F093A300E0930E
:1005B000A2003EC0D9011396FC93EE9312974D9181
:1005C0005D91A40FB51FEA17FB0779F48081918133
:1005D000840F951F0296D90111969C938E93828168
:1005E000938113969C938E931297E0E0F0E08A81BA
:1005F0009B81009719F0FE01EC01F9CFCE01029624
:1006000028813981820F931F2091A0003091A10091
:100610002817390769F4309729F41092A300109233
:10062000A20002C013821282D093A100C093A00046
:10063000DF91CF910895DC0101C06D93415050408E
:08064000E0F70895F894FFCFE4
:100648000000A40020005249474854204B45590057
:100658005550204B455900444F574E204B455900A3
:100668004C454654204B45590053454C454354543A
:06067800204B4559000073
:00000001FF
