S00C0000554152542E73726563DC
S113000012C019C018C017C016C015C014C013C040
S113001012C011C010C025C00EC00DC00CC00BC052
S11300200AC009C008C011241FBECFE5D4E0DEBF5A
S1130030CDBF2FD03EC0E4CF11BA82E081BB8FEF99
S113004084BB15BA81E087BB089588E98AB986E83C
S113005080BD83E389B910BC08955D9BFECF8CB944
S113006008951F920F920FB60F9211248F938CB1A3
S1130070803329F0813329F483E085BB04C015BAA9
S113008002C081E088BB8F910F900FBE0F901F902C
S11300901895D2DFDADF789480E7DFDF89E6DDDFE9
S11300A084E6DBDF8FE6D9DF82E7D7DF81E2D5DFC5
S10900B0FFCFF894FFCF1E
S9030000FC
