:1000000012C02CC02BC02AC029C028C027C026C0BF
:1000100025C009C123C022C021C020C020C01EC0ED
:100020001DC01CC01BC011241FBECFE5D4E0DEBF25
:10003000CDBF10E0A0E6B0E0E6EAF4E002C0059033
:100040000D92A43AB107D9F720E0A4EAB0E001C0CC
:100050001D92A83BB207E1F7BED123C2D1CF1F92B8
:100060000F920FB60F9211242F933F934F935F93EC
:100070006F937F938F939F93AF93BF9384B190E0DF
:100080009093A5008093A40025B130E03093A700A1
:100090002093A6008091B6009091B700843191051D
:1000A00080F44091AD005091AE00240F351F309385
:1000B000AE002093AD0001969093B7008093B600F8
:1000C00019C02091AD003091AE00ADECBCECDDD19B
:1000D000929582958F7089279F7089279093B000A1
:1000E0008093AF001092B7001092B6001092AE004D
:1000F0001092AD00BF91AF919F918F917F916F91C1
:100100005F914F913F912F910F900FBE0F901F90D5
:10011000189586B18E6E86B987B1806E87B90895BD
:1001200089B7816089BF83B7836083BF08958230B8
:10013000E1F028F4882341F0813071F035C083303C
:10014000F1F0843039F130C08091AF009091B0006F
:10015000499760F581E008958091AF009091B000DB
:100160004A97879728F581E008958091AF00909194
:10017000B00082549109C197E8F481E0089580911C
:10018000AF009091B0008457910980349105A0F49C
:1001900081E008958091AF009091B000855B910956
:1001A000C19760F481E0089584E0089582E00895A5
:1001B00082E0089582E0089582E0089582E0089543
:1001C0001F93CF93DF93C82FD0E0FE01EF54FF4F72
:1001D000108115FD24C0ABDF823089F4FE01E855A3
:1001E000FF4F8081882319F08150808318C010FF51
:1001F00016C0CF54DF4F1E7F1261188310C0FE015E
:10020000E855FF4F8081853018F48F5F808307C0E9
:1002100011FF05C0CF54DF4F1D7F19601883DF9198
:10022000CF911F9108951F920F920FB60F92112434
:100230002F933F934F935F936F937F938F939F93EE
:10024000AF93BF93EF93FF9380E0BADF81E0B8DF15
:1002500082E0B6DF83E0B4DF84E0B2DFFF91EF91AC
:10026000BF91AF919F918F917F916F915F914F91CE
:100270003F912F910F900FBE0F901F901895E82F70
:10028000F0E0EF54FF4F609580816823608308950C
:10029000E82FF0E0EF54FF4F8081682B60830895D2
:1002A00082E08093B1008093B2008093B30080938A
:1002B000B4008093B50008958FEF81BB12BA089502
:1002C000939AE7ECF0E03197F1F700C0000092B3A9
:1002D0009F7092BB92B38295807F892B82BB93984B
:1002E00087EC90E00197F1F700C000000895CF93EC
:1002F000C82F611102C0929801C0929A8C2F8295EA
:100300008F70DEDF8C2FDCDFCF9108958FE59AEEC2
:100310000197F1F700C0000083E0D2DF8FE79EE392
:100320000197F1F700C0000083E0CADF8FE891E099
:100330000197F1F700C0000083E0C2DF8FE99FE082
:100340000197F1F700C0000082E0BADF8FE99FE07B
:100350000197F1F700C0000060E088E2C8DF8FE994
:100360009FE00197F1F700C0000060E08CE0BFDF84
:100370008FE99FE00197F1F700C0000060E086E0A0
:10038000B6DF8FE99FE00197F1F700C00000089504
:1003900061E0ADDF089590E4699F800D112460E075
:1003A0008068A5DF0895CF93DF93EC0188818823CF
:1003B00029F02196EDDF89918111FCCFDF91CF915A
:1003C000089560E081E093DF8FE697E10197F1F710
:1003D00000C000000895CF93DF93CDB7DEB7E79755
:1003E0000FB6F894DEBF0FBECDBF87E3E0E6F0E0C6
:1003F000DE01119601900D928A95E1F75DDF86DFAF
:1004000088DE4EDF8DDE7894DCDF60E070E080E037
:10041000C2DF87E990E0C7DF0F2EF1EBCF2EF0E0CF
:10042000DF2EF02D0F2EF6EBAF2EF0E0BF2EF02DCD
:1004300061E070E080E0AFDFCE0101967C018601D3
:10044000902E9C18F80181918F0184FF0EC060E20C
:10045000892D1EDFC701A7DF60E1892D10DF68E06D
:10046000892D16DF60E2892D0ADFFBE0EF0EF11C1B
:100470000A151B0529F72FEF80E792E021508040F5
:100480009040E1F700C00000D3CFA29FB001B39F1E
:10049000C001A39F01D0B29F700D811D1124911D39
:0604A0000895F894FFCF5F
:1004A6005249474854204B455920005550204B454A
:1004B600592020202000444F574E204B45592020DC
:1004C600004C454654204B455920200053454C4589
:1004D6004354204B455900427574746F6E20546521
:0404E600737400002B
:00000001FF
